:020000040000FA
:10000000700400206D020000710200007302000005
:100010007502000077020000790200000000000075
:100020000000000000000000000000007B02000053
:100030007D020000000000007F020000810200003D
:1000400083020000DD030000830200008302000041
:10005000830200008302000083020000830200008C
:10006000830200008302000083020000830200007C
:10007000830200008302000083020000830200006C
:10008000830200008302000083020000830200005C
:10009000830200008302000083020000830200004C
:1000A000830200008302000083020000830200003C
:1000B000830200008302000083020000830200002C
:1000C000830200008302000083020000830200001C
:1000D000830200008302000083020000830200000C
:1000E00083020000830200008302000083020000FC
:1000F00083020000830200008302000083020000EC
:1001000083020000830200008302000083020000DB
:1001100083020000830200008302000083020000CB
:1001200083020000830200008302000083020000BB
:1001300083020000830200008302000083020000AB
:1001400000000000000000000000000000000000AF
:10015000830200008302000083020000830200008B
:10016000000000000000000000000000000000008F
:10017000000000000000000000000000000000007F
:10018000000000000000000000000000000000006F
:10019000000000000000000000000000000000005F
:1001A000000000000000000000000000000000004F
:1001B000830200008302000083020000830200002B
:1001C000830200008302000083020000830200001B
:1001D000830200008302000083020000830200000B
:1001E00083020000830200008302000083020000FB
:1001F00083020000830200008302000083020000EB
:10020000830200008302000083020000000000005F
:1002100083020000830200008302000083020000CA
:1002200083020000830200008302000083020000BA
:1002300083020000830200008302000083020000AA
:10024000830200008302000083020000830200009A
:10025000830200008302000083020000830200008A
:1002600083020000830200008302000000F00AB84D
:10027000FEE7FEE7FEE7FEE7FEE7FEE7FEE7FEE756
:10028000FEE7FEE700F002F800F042F814A696E858
:10029000000CB244B344DA4501D100F039F8BAE8B1
:1002A0000F000FA696E83000A5EB040504EB060747
:1002B000AAEB0704A7F101074FEA15154FEA34141A
:1002C000A4F10104AC4201D300F022F813F0010FB5
:1002D00018BFFB1A43F0010300F001F8DBE71847F1
:1002E000540700006407000070470000002300244A
:1002F00000250026103A28BF78C1FBD8520728BF36
:1003000030C148BF0B6070471FB51FBD10B510BD91
:1003100000F029F81146FFF7F7FF00F033F900F07D
:1003200047F803B4FFF7F2FF03BC00F04FF80000FA
:1003300072B6704762B67047EFF3108072B67047BE
:1003400080F31088704730BF704702480249014A65
:10035000024B7047700000207004002070000020E5
:10036000704770477047754600F02CF8AE460500A0
:100370006946534620F00700854618B020B5FFF7C0
:10038000E4FFBDE820404FF000064FF000074FF0BB
:1003900000084FF0000BAC46ACE8C009ACE8C0095F
:1003A000ACE8C009ACE8C00921F007018D467047F0
:1003B00010B50446AFF300802046BDE81040FFF7BB
:1003C000B0BF00000048704700000020014918201D
:1003D000ABBEFEE7260002007047000010B545F2F4
:1003E0000014C4F200042068402802D100F0A6F8EE
:1003F00023E000F0BFF800F099F800F00AFA0023BB
:10040000C3F6B073002200F017FA46F6007248F601
:10041000C573C0F28142C3F6A17300F00DFA00F07B
:10042000CBF940F260014008C2F20001086040F2DE
:100430006400C2F20000012101704020C4F81C03D6
:1004400010BD00004EF27000C4F20F0001681822C7
:1004500041F000410160016841F40061016050F821
:10046000101C21F4F86140F8101C50F8101C01F524
:10047000A86140F8101C016821F07001016001685A
:100480000160016821F400510160016841F0804180
:100490000160016862F39C51016000BF50F8201CAC
:1004A0004906FBD5016821F4006101607047000036
:1004B0004EF21000CEF2000000216FF07F4201608A
:1004C00042608160016841F00501016070470000F1
:1004D0004EF21000CEF200000021016070470000D3
:1004E00081B04EF21801CEF200010A680B68D31AEF
:1004F00023F07F430093009B8342F7D901B07047FC
:100500004EF210014FF0FF33CEF20001002203EB58
:1005100000100A6048608A60086840F005000860C2
:100520000868C003FCD500200860704741F228002D
:10053000C4F203000168006A081A70474EF20460B2
:10054000C4F20F000168042241F00201016041F28F
:100550000C00C4F203000021016040F80C2C0222C0
:1005600040F8082C4FF0FF32C261C16201210160E6
:100570007047000041F20C00C4F20300002101604A
:10058000704700004EF20814C4F20F04FFF75AFF40
:10059000206840F00200206020688007FCD545F20A
:1005A0000025C4F20005D5F82C03032220F07F407B
:1005B000C5F82C03D5F8280320F0C000C5F828039F
:1005C000D5F8000220F04000C5F80002D5F800027E
:1005D00040F08000C5F80002D5F8200220F0C000ED
:1005E000C5F82002D5F81C0340F0C000C5F81C0374
:1005F000D5F8040220F04000C5F80402D5F808023E
:1006000040F04000C5F80802D5F80C0220F0400088
:10061000C5F80C024020C5F81C02D5F8100240F0C5
:100620004000C5F810024EF20040CEF20000016812
:1006300062F34F3101604FF60051CFF6FF71022295
:100640004250206840F02000206000BF20688006F3
:10065000FCD545F23806C4F20206D6F8C80341F6C6
:10066000401840F00E00C6F8C803D6F8E803C0F200
:10067000010820F00E00C6F8E80345F21C50C4F251
:100680000200016841F00E010160016921F470610E
:100690000161C16841F00E01C160FFF74BFE40F2FD
:1006A000640740F2600440F6001940F2680BC2F2A1
:1006B00000074FF0000AC2F20004C0F23D09C2F286
:1006C000000B10E0FFF7F4FE4846FFF709FF306823
:1006D00020F004003060306820F00800306030689E
:1006E00080F00200306087F800A0C4F800A02868FD
:1006F00020F0800028600220FFF702FF286840F009
:10070000800028600A20FFF7FBFE286820F08000A8
:10071000286000BF38780028FCD020680928D1D98B
:100720002068452810D8FFF7C3FE206840F26C010E
:1007300014284046C2F2000124D320681E2809D2A2
:100740004FF47A401EE000BFFFF7C2FE6FF00E00CC
:100750003060C8E72068282802D24DF6C02011E09A
:100760002068322802D24BF680300BE020683C280B
:1007700002D249F6404005E02068452804D84FF4ED
:10078000FA4000BFCBF80000DBF80000A8EB000047
:1007900000F5FA500860306810F00E0F04D06FF0CA
:1007A0000E003060086803E00E203060DBF80000C7
:1007B0000138FFF795FE96E74FEA1153A3F58063E2
:1007C000D3F11E03A8BFD3F1200C08DB4FF0004289
:1007D00042EAC12252EA505232FA03F0704709420B
:1007E0000BD4102BC4BF0020704703F5787CBCF1FC
:1007F000FF3F05D04FF0FF3070474FF000007047CB
:1008000070B500F0C3F800BF499224800020704703
:10081000F0E7B0FA80F310FA03F10AD0C3F11D0338
:1008200003F580634FEA03524FEA415002EBD121B6
:1008300070474FF00000704770B5DFF848C11CEA00
:10084000111E1EBF1CEA13159EEA0C0F95EA0C0F31
:1008500000F06F8081EA03044EEAD47EAE4421EAC0
:100860004C1123EA4C1341F4801143F48013AEF190
:100870007F7EA1FB024CA0FB0365361955EB0C05EE
:10088000A1FB034C4CF10003A0FB021C16EB0C0671
:10089000654153F10003094218BF46F0010613F405
:1008A000007F0BD14FEA03314FEA053041EA155181
:1008B00040EA165034036FF003020AE04FEAC32106
:1008C0004FEAC52041EA555140EA5650F4026FF014
:1008D000020202EB2E4201EB025585EACE710AD0EC
:1008E0005FEA440C18BF24F0004450F1000041F1CD
:1008F000000120EAD47040F2FE7C624500D270BD57
:10090000A84214BF4FF080444FF04044002E08BF6F
:100910000024BEF1806FA8BFA1F1C041BDE87040C6
:1009200080F2828001F1C04101F000414FF00000EF
:1009300070470CEA13159EEA0C0F18BF95EA0C0FCE
:1009400006D081EA030E4FF000000EF0004170BDAA
:1009500000F01CF88900013E00F007B800F009B86B
:100960004FEA430C5FEA5C5C08D081EA030100F0C7
:100970005BB84FEA410C5FEA5C5CF6D102494FF08C
:10098000000070470000FF070000F87F0EF1020E24
:100990002EF0030E5EF8046B364205D4012A43EBB9
:1009A000030515F5001F12D8012841EB010C1CF5B9
:1009B000001F0CD80ED14FEAD17C0CEB4C0C0CF183
:1009C000020C15F5001F08BF4CEBD37C04E04FF080
:1009D000080C01E04FEAD37C0CEB4C0526FA05F637
:1009E00006F00706B6F1040C06D20EEB860CBDE845
:1009F00070404CF0010C6047DFE80CF0090B02027C
:100A00004FF00041A1F500214FF0000070BD1946E4
:100A10001046012851EB010418BFD4F5001484BF1F
:100A2000002001F0004170BD0808A0F500114FEA58
:100A300031017047440A00000000002070040000EB
:040A4000EC020000C4
:040000050000026D88
:00000001FF
