:020000040000FA
:10000000780400206D0200007102000073020000FD
:100010007502000077020000790200000000000075
:100020000000000000000000000000007B02000053
:100030007D020000000000007F020000A905000012
:1000400083020000DD030000830200008302000041
:10005000830200008302000083020000830200008C
:10006000830200008302000083020000830200007C
:10007000830200008302000083020000830200006C
:10008000830200008302000083020000830200005C
:10009000830200008302000083020000830200004C
:1000A000830200008302000083020000830200003C
:1000B000830200008302000083020000830200002C
:1000C000830200008302000083020000830200001C
:1000D000830200008302000083020000830200000C
:1000E00083020000830200008302000083020000FC
:1000F00083020000830200008302000083020000EC
:1001000083020000830200008302000083020000DB
:1001100083020000830200008302000083020000CB
:1001200083020000830200008302000083020000BB
:1001300083020000830200008302000083020000AB
:1001400000000000000000000000000000000000AF
:10015000830200008302000083020000830200008B
:10016000000000000000000000000000000000008F
:10017000000000000000000000000000000000007F
:10018000000000000000000000000000000000006F
:10019000000000000000000000000000000000005F
:1001A000000000000000000000000000000000004F
:1001B000830200008302000083020000830200002B
:1001C000830200008302000083020000830200001B
:1001D000830200008302000083020000830200000B
:1001E00083020000830200008302000083020000FB
:1001F00083020000830200008302000083020000EB
:10020000830200008302000083020000000000005F
:1002100083020000830200008302000083020000CA
:1002200083020000830200008302000083020000BA
:1002300083020000830200008302000083020000AA
:10024000830200008302000083020000830200009A
:10025000830200008302000083020000830200008A
:1002600083020000830200008302000000F00AB84D
:10027000FEE7FEE7FEE7FEE7FEE7FEE7FEE7FEE756
:10028000FEE7FEE700F002F800F042F814A696E858
:10029000000CB244B344DA4501D100F039F8BAE8B1
:1002A0000F000FA696E83000A5EB040504EB060747
:1002B000AAEB0704A7F101074FEA15154FEA34141A
:1002C000A4F10104AC4201D300F022F813F0010FB5
:1002D00018BFFB1A43F0010300F001F8DBE71847F1
:1002E00094070000A40700007047000000230024CA
:1002F00000250026103A28BF78C1FBD8520728BF36
:1003000030C148BF0B6070471FB51FBD10B510BD91
:1003100000F029F81146FFF7F7FF00F0B7F900F0F9
:1003200047F803B4FFF7F2FF03BC00F04FF80000FA
:1003300072B6704762B67047EFF3108072B67047BE
:1003400080F31088704730BF704702480249014A65
:10035000024B7047780000207804002078000020CD
:10036000704770477047754600F02CF8AE460500A0
:100370006946534620F00700854618B020B5FFF7C0
:10038000E4FFBDE820404FF000064FF000074FF0BB
:1003900000084FF0000BAC46ACE8C009ACE8C0095F
:1003A000ACE8C009ACE8C00921F007018D467047F0
:1003B00010B50446AFF300802046BDE81040FFF7BB
:1003C000B0BF00000048704700000020014918201D
:1003D000ABBEFEE7260002007047000010B545F2F4
:1003E0000014C4F200042068402802D100F002F991
:1003F00023E000F01BF900F0F5F800F02AFA0023E2
:10040000C3F6B073002200F037FA46F6007248F6E1
:10041000C573C0F28142C3F6A17300F02DFA00F05B
:10042000EBF940F264014008C2F20001086040F2BA
:100430006800C2F20000012101704020C4F81C03D2
:1004400010BD00004EF21000CEF20000016840F234
:10045000640321F001010160C2F200031968092957
:1004600045F23801C4F2020111D840F60012C0F280
:100470003D0242600A6822F004020A600A6822F023
:1004800008020A600A6882F002020A604FE01A68F5
:1004900040F26C0C142AC2F2000C04D24BF600237A
:1004A000C0F2DB0326E01A681E2A04D245F20003DC
:1004B000C0F2C3031EE01A68282A04D24EF2006379
:1004C000C0F2AA0316E01A68322A04D247F60043A3
:1004D000C0F292030EE01A683C2A04D241F20023D3
:1004E000C0F27A0306E01A68452A05D84AF60003E6
:1004F000C0F26103CCF80030DCF8002042F2004387
:10050000C0F2F4039A1A40F27003C2F200031A60B8
:100510000A6812F00E0F04D06FF00E020A6019681C
:1005200003E00E220A60DCF800100139416000216E
:100530008160016841F00101016070474EF2700076
:10054000C4F20F000168182241F000410160016807
:1005500041F40061016050F8101C21F4F86140F88A
:10056000101C50F8101C01F5A86140F8101C01681F
:1005700021F07001016001680160016821F40051FF
:100580000160016841F080410160016862F39C51A3
:10059000016000BF50F8201C4906FBD5016821F41A
:1005A000006101607047000040F26000C2F200008C
:1005B0000068004740F26002C2F2000210604EF292
:1005C0001000CEF20000002201390260416082601A
:1005D000D0F8101D022262F35F71C0F8101D0721D0
:1005E0000160704741F22800C4F203000168006A0C
:1005F000081A70474EF20460C4F20F00016804222A
:1006000041F00201016041F20C00C4F2030000213C
:10061000016040F80C2C022240F8082C4FF0FF3209
:10062000C261C162012101607047000041F20C000B
:10063000C4F2030000210160704700004EF2046222
:10064000C4F20F0213680C2143F00103C4F203014A
:10065000136000220A6041F80C2C022241F8082C99
:100660000F224FF0010C0128CA61C1F818C0C1F86F
:1006700000C0B8BF704700230A69D207FCD001331D
:100680008342C1F818C0F7D1704700004EF2081538
:10069000C4F20F05FFF752FF286840F002002860FF
:1006A00028688007FCD545F20024C4F20004D4F881
:1006B0002C03032220F07F40C4F82C03D4F8280335
:1006C00020F0C000C4F82803D4F8000220F0400055
:1006D000C4F80002D4F8000240F08000C4F8000220
:1006E000D4F8200220F0C000C4F82002D4F81C0383
:1006F00040F0C000C4F81C03D4F8040220F040000D
:10070000C4F80402D4F8080240F04000C4F808021B
:10071000D4F80C0220F04000C4F80C024020C4F8C9
:100720001C02D4F8100240F04000C4F810024EF24F
:100730000040CEF20000016862F34F3101604FF6D5
:100740000051CFF6FF7102224250286840F020008D
:10075000286000BF28688006FCD545F20040C4F23E
:10076000020001684FF6F07241F00E010160016A6B
:10077000002521F00E010162D0F81C1141F00E019C
:10078000C0F81C11D0F82C119143C0F82C11C0F8FE
:10079000285140F245404FF6FE71C0F20000C0F211
:1007A0003F01FFF707FFFFF7C5FD40F2680640F283
:1007B0006407C2F20006C2F2000700BF35703D6058
:1007C000206820F0800020600220FFF737FF2068BB
:1007D00040F0800020600B20FFF730FF206820F001
:1007E0008000206030780028E8D100BFFFF7ABFD23
:1007F00030780028FAD0E1E74FEA1153A3F580637F
:10080000D3F11E03A8BFD3F1200C08DB4FF0004248
:1008100042EAC12252EA505232FA03F070470942CA
:100820000BD4102BC4BF0020704703F5787CBCF1BB
:10083000FF3F05D04FF0FF3070474FF0000070478A
:1008400070B500F0C3F800BF4992248000207047C3
:10085000F0E7B0FA80F310FA03F10AD0C3F11D03F8
:1008600003F580634FEA03524FEA415002EBD12176
:1008700070474FF00000704770B5DFF848C11CEAC0
:10088000111E1EBF1CEA13159EEA0C0F95EA0C0FF1
:1008900000F06F8081EA03044EEAD47EAE4421EA80
:1008A0004C1123EA4C1341F4801143F48013AEF150
:1008B0007F7EA1FB024CA0FB0365361955EB0C05AE
:1008C000A1FB034C4CF10003A0FB021C16EB0C0631
:1008D000654153F10003094218BF46F0010613F4C5
:1008E000007F0BD14FEA03314FEA053041EA155141
:1008F00040EA165034036FF003020AE04FEAC321C6
:100900004FEAC52041EA555140EA5650F4026FF0D3
:10091000020202EB2E4201EB025585EACE710AD0AB
:100920005FEA440C18BF24F0004450F1000041F18C
:10093000000120EAD47040F2FE7C624500D270BD16
:10094000A84214BF4FF080444FF04044002E08BF2F
:100950000024BEF1806FA8BFA1F1C041BDE8704086
:1009600080F2828001F1C04101F000414FF00000AF
:1009700070470CEA13159EEA0C0F18BF95EA0C0F8E
:1009800006D081EA030E4FF000000EF0004170BD6A
:1009900000F01CF88900013E00F007B800F009B82B
:1009A0004FEA430C5FEA5C5C08D081EA030100F087
:1009B0005BB84FEA410C5FEA5C5CF6D102494FF04C
:1009C000000070470000FF070000F87F0EF1020EE4
:1009D0002EF0030E5EF8046B364205D4012A43EB79
:1009E000030515F5001F12D8012841EB010C1CF579
:1009F000001F0CD80ED14FEAD17C0CEB4C0C0CF143
:100A0000020C15F5001F08BF4CEBD37C04E04FF03F
:100A1000080C01E04FEAD37C0CEB4C0526FA05F6F6
:100A200006F00706B6F1040C06D20EEB860CBDE804
:100A300070404CF0010C6047DFE80CF0090B02023B
:100A40004FF00041A1F500214FF0000070BD1946A4
:100A50001046012851EB010418BFD4F5001484BFDF
:100A6000002001F0004170BD0808A0F500114FEA18
:100A700031017047840A0000000000207804000063
:040A8000EC02000084
:040000050000026D88
:00000001FF
